:100000009EC10000B8C10000B6C10000B4C100002C
:10001000B2C10000B0C10000AEC100000C947C0869
:100020000C94A608A8C10000A6C100000C94790D8C
:100030000C9417090C9441090C946B090C949509C4
:100040000C94BF090C94E9090C94130A0C943D0A12
:100050000C94670A0C94910A8EC100008CC10000B8
:100060008AC1000088C1000086C1000084C1000070
:1000700082C1000080C100007EC100007CC1000080
:100080007AC1000078C100000C944D0874C10000D2
:100090000C94BB0A0C94E50A0C940F0B0C94390BCE
:1000A0006AC1000068C1000066C1000000000000D5
:1000B0000000002020202020002050505000000090
:1000C000005050F850F850502078A07028F020C010
:1000D000C810204098186090A040A8906860204008
:1000E0000000000010204040402010402010101060
:1000F0002040005020F8205000002020F820200050
:1001000000000000602040000000F8000000000037
:10011000000000606000081020408000708898A8EF
:10012000C88870206020202020707088081020402F
:10013000F8F810201008887010305090F81010F85F
:1001400080F008088870304080F0888870F80810C7
:10015000204040407088887088887070888878084F
:10016000106000606000606000006060006020401F
:10017000081020402010080000F800F8000080401F
:1001800020102040807088081020002070880868A7
:10019000A8A87070888888F88888F08888F088888F
:1001A000F070888080808870E09088888890E0F87F
:1001B0008080F08080F8F88080E080808070888087
:1001C00080988870888888F8888888702020202007
:1001D0002070381010101090608890A0C0A09088F7
:1001E000808080808080F888D8A8888888888888DF
:1001F000C8A898888870888888888870F08888F06F
:1002000080808070888888A89068F08888F0A090A6
:1002100088788080700808F0F8202020202020882E
:100220008888888888708888888888502088888806
:10023000A8A8D8888888502050888888885020208E
:100240002020F80810204080F83820202020203876
:1002500000804020100800E02020202020E02050D6
:100260008800000000000000000000F8402010009E
:10027000000000000070087888788080B0C8888806
:10028000F00000708080887008086898888878007E
:10029000007088F88070304840E0404040000078AE
:1002A000887808308080B0C8888888200060202046
:1002B000207010003010109060404048506050484E
:1002C000602020202020700000D0A8A8888800008E
:1002D000B0C8888888000070888888700000F0881E
:1002E000F08080000068987808080000B0C880801E
:1002F00080000070807008F04040E04040483000CE
:1003000000888888986800008888885020000088C5
:1003100088A8A8500000885020508800008888785D
:1003200008700000F8102040F81020204020201015
:100330002020202020202040202010202040112498
:100340001FBECFEFCDBFDFE2DEBF10E2A0E0B0E224
:10035000E6EFF6E202C005900D92AC35B107D9F791
:1003600022E2ACE5B0E201C01D92A33BB207E1F787
:10037000DDD50C94791344CE80E090E0019685336E
:100380009105E1F708951F93CF93DF931F92CDB7A7
:10039000DEB7182F89E78983BE016F5F7F4F80EC3E
:1003A00098E01FD381E08093E6078091C10885FF24
:1003B000FCCF1093C0088091C10886FFFCCF80E479
:1003C0008093C1088091C008BE016F5F7F4F80ECB1
:1003D00098E01DD30F90DF91CF911F910895CF9298
:1003E000DF92EF92FF920F931F93CF93DF931F92B1
:1003F000CDB7DEB700E616E088E0F82EF801F68209
:10040000BBDFF801F582B8DF89E7898380EC98E0EB
:10041000BCD2C12CD12C760100E01BE127EB30E0EF
:1004200040E0BE016F5F7F4F80EC98E0BED288EA6B
:10043000AADF8FE1A8DF83EDA6DF80E0A4DF80E400
:10044000A2DF81EAA0DF88EC9EDF8AED9CDF82E0FC
:100450009ADF81E898DF8FE896DF84EA94DF86EA06
:1004600092DF85ED90DF80E88EDF8DE88CDF84E120
:100470008ADF8BED88DF80E486DF89ED84DF81EF22
:1004800082DF8FEA80DF0F90DF91CF911F910F9174
:10049000FF90EF90DF90CF9008958FEF80937000E2
:1004A0008093710080937200809373008093740036
:1004B00080937500809376009FB7F89480915000E8
:1004C0008260809350009FBF8091510081FFFCCFDC
:1004D00061E080E490E00E94A20E9FB7F8948091C2
:1004E00050008E7F809350009FBF9FB7F8948091FB
:1004F00050008460809350009FBF8091510082FF24
:10050000FCCF85E08093430008952FB7F894FC0159
:10051000E059FF4F60958081682360832FBF089565
:1005200080935C2090935D20089520915C20309111
:100530005D2090E8899F200D311D1124F901E60FFF
:10054000F11D4083089520915C2030915D2090E85A
:10055000899F200D311D1124F901E60FF11D8081C5
:100560000895FF920F931F93CF93DF93082F842F4B
:1005700090E0800F911D8138910514F040E8401BF8
:10058000442309F44CC0162F16951695169558EF6E
:100590005103C0011124860F911D61E070E001C07C
:1005A000660F8A95EAF7F62E2130310539F048F0CA
:1005B00022303105A1F5CFEFC40F24C0CFEFC40F17
:1005C00005C0CFEFC40FD62FD0950EC0DC2FD00FB3
:1005D0006D2F812FB7D1482F4F2920E06D2F812F0C
:1005E00043D1C15098F71BC0FC2EF00E6F2D812F08
:1005F000A9D1482F4D2320E06F2D812F35D1C15037
:1006000098F70DC0DC2FD00F6D2F812F9BD1482F75
:100610004F2520E06D2F812F27D1C15098F7DF9112
:10062000CF911F910F91FF900895EF92FF920F933A
:100630001F93CF93DF93222371F07801C22F142FE1
:10064000062FD82FC1506C2F600F9701412F8D2F8F
:1006500088DFC150C0F7DF91CF911F910F91FF90BC
:10066000EF9008959F92AF92BF92CF92DF92EF9258
:10067000FF920F931F93CF93DF93D82FD62EC42EC4
:10068000790100E010E0D90115962C911597149688
:100690004C916C2D8D2DC9DFF70180819181892BC3
:1006A00009F03FC08481E82FE695E695E6958770CE
:1006B00009F0EF5FD7011596CC911597EC9FF001EB
:1006C00011242D2F30E016968C911697281B310996
:1006D000E29FC001E39F900DF29F900D11241296AE
:1006E0000D911C911397080F191FCC0E9C2C9C1A6E
:1006F000F701A480B12CD0E08D2F8D0DDA1579F0A3
:100700009D2F977021F4F801B4900F5F1F4FB7FE33
:1007100003C041E0692DDCD0BB0CDF5FEDCFC150E1
:1007200029F7DF91CF911F910F91FF90EF90DF900C
:10073000CF90BF90AF909F900895DF92EF92FF927D
:100740000F931F93CF93DF93D62ED42F79018C0173
:10075000C62FF80181918F018A3031F4F70185812C
:100760008F5FD80FCD2D09C08D3039F097014D2FF7
:100770006C2F78DFF7018481C80FF8018081811127
:10078000E8CFDF91CF911F910F91FF90EF90DF9015
:1007900008951F93CF93DF931F92CDB7DEB7182F25
:1007A00089E78983BE016F5F7F4F80EC98E019D1A4
:1007B00081E08093E5078091C10885FFFCCF10930D
:1007C000C0088091C10886FFFCCF80E48093C108F7
:1007D0008091C00881E08093E607BE016F5F7F4F84
:1007E00080EC98E014D10F90DF91CF911F91089584
:1007F0001F93CF93DF931F92CDB7DEB7182F89E7F2
:100800008983BE016F5F7F4F80EC98E0EAD081E082
:100810008093E6078091C10885FFFCCF1093C00844
:100820008091C10886FFFCCF80E48093C10880914D
:10083000C008BE016F5F7F4F80EC98E0E8D00F905A
:10084000DF91CF911F9108958770806BD1CFCF93A7
:10085000C82F982F9F77892F82958F708061C8DF6E
:100860008C2F8F70CF91C4CF1F93CF93DF93D82F4E
:10087000162FC42F222369F04C2F612F8D2F55DEA8
:100880008D2FE2DF812FE3DF8C2FDF91CF911F913E
:1008900080CF59DEC813F0CFDF91CF911F9108951B
:1008A000CF93DF938EE590E23BDE99DD80E4A0DF1D
:1008B000D0E0C0E021E040E06C2F8D2FD5DFCF5F8E
:1008C000C038C1F7DF5FD430A1F7DF91CF91089531
:1008D000FF920F931F93CF93DF9387FD2DC060325C
:1008E00058F5042F182FF62EF694F694F6942F2D23
:1008F00038EF3203C0011124860F911DC1E0D0E012
:1009000001C0CC0F8A95EAF7612F8F2D1CDE482F8E
:10091000013029F030F0023031F44C2704C04C2B68
:1009200002C0C0954C2320E0612F8F2DDF91CF9125
:100930001F910F91FF9098CFDF91CF911F910F9151
:10094000FF90089500CEFC0180E090E0262F30E07B
:10095000D901082E02C0B595A7950A94E2F7A0FF29
:1009600005C0DF01A80FB91F50965C93019688302F
:10097000910571F740FF07C041FF02C0658301C0C8
:1009800066836183089562830895803C28E092071E
:1009900021F460E183E090E006C0803C994021F4BE
:1009A00060E184E090E0B1CD08950F931F93CF9361
:1009B000DF93CDB7DEB72697CDBFDEBF09831A839D
:1009C0002B833C834D831E82BE016F5F7F4F0E944D
:1009D000FE0C2696CDBFDEBFDF91CF911F910F9108
:1009E0000895FB018081E82FE695E695E69540E2C3
:1009F000E49FF0011124FA5F877021E030E0A90143
:100A000002C0440F551F8A95E2F746830895FB0103
:100A10008081E82FE695E695E69540E2E49FF001B7
:100A20001124FA5F877021E030E0A90102C0440F71
:100A3000551F8A95E2F745830895CF93DF931F9260
:100A4000CDB7DEB780919D2290919E22E0919922B0
:100A5000F0919A22BE016F5F7F4F0995898190E0E6
:100A60000F90DF91CF910895682F80919D229091F2
:100A70009E22E0919B22F0919C22099597FD03C054
:100A800081E090E008958FEF9FEF089580916222BA
:100A90008823F1F0109262222091200830912108E1
:100AA00080915E2290915F22A0916022B09161229C
:100AB000820F931FA11DB11D80935E2290935F2230
:100AC000A0936022B0936122109220081092210816
:100AD000089560E483E090E018CD0F931F93CF93C7
:100AE000DF93CDB7DEB72997CDBFDEBF80E89AE1AF
:100AF000A6E0B0E089839A83AB83BC8383E290E075
:100B0000A0E0B0E08D839E83AF83B88780E58987BE
:100B100087E08093A200DDDF00E814E0F801808127
:100B200088608083808180648083BE016F5F7F4F97
:100B300080E894E00E94370EF8018181886081830B
:100B4000C8DF2996CDBFDEBFDF91CF911F910F91F6
:100B50000895CF93DF93CDB7DEB72D97CDBFDEBF1E
:100B60006C877D8798E699838A8381E090E08D8306
:100B70009E83CE010C968F83988750E049875A87D1
:100B800040E0BE016F5F7F4F80E894E00E944E0E10
:100B90002D96CDBFDEBFDF91CF910895CF93DF9328
:100BA000CDB7DEB72C97CDBFDEBF6C8798E69983B3
:100BB0008A8381E090E08D839E839E01245F3F4F76
:100BC0002F83388789879A8740E0BE016F5F7F4F08
:100BD00080E894E00E944E0E2C96CDBFDEBFDF91E0
:100BE000CF910895CF93DF93CDB7DEB72B97CDBFCD
:100BF000DEBF98E699838A8381E090E08D839E83AF
:100C00006F83788750E049875A8741E0BE016F5F64
:100C10007F4F80E894E00E944E0E2B96CDBFDEBF42
:100C2000DF91CF910895CF93DF93CDB7DEB72B97A8
:100C3000CDBFDEBF98E699838A8381E090E08D8303
:100C40009E836F83788789879A8741E0BE016F5FB3
:100C50007F4F80E894E00E944E0E2B96CDBFDEBF02
:100C6000DF91CF910895FF920F931F93CF93DF935E
:100C700000D0CDB7DEB7082F162FF42EBE016F5F60
:100C80007F4F2A83D0DF2A81882301F1E12FF0E012
:100C9000EF19F109319641E050E002C0440F551FB1
:100CA000FA94E2F7415051090E2E01C0440F0A9404
:100CB000EAF701C0220FEA95EAF7642F609589816F
:100CC00068234223642B6983802F68DF0F900F9085
:100CD000DF91CF911F910F91FF900895282F42E04F
:100CE00064E08BE1C0CF282F42E064E08CE1BBCF11
:100CF000FC011082118212821382148215821682E4
:100D0000178210861186128613861486158608951A
:100D1000823049F080F0833051F0843061F480E01B
:100D2000DDDF80E0E0CF82E0D9DF82E0DCCF81E070
:100D3000D5DF81E0D8CF83E0D1DF83E0D4CF21E0DD
:100D400043E062E08BE68FDF84E0E2DF20E041E019
:100D500066E08BE688DF42E061E070E08AE0F9CE91
:100D60000F931F93CF93DF93EC014EE063E672E2A3
:100D70008BE338DFE3E6F2E2808190E0982F88276A
:100D80002181822B08EE13E0B801F6D768837983BE
:100D9000828190E0982F88272381822BB801ECD79D
:100DA0006A837B83848190E0982F88272581822B1A
:100DB000B801E2D76C837D83808590E0982F8827E7
:100DC0002185822BB801D8D76E837F83828590E0FE
:100DD000982F88272385822BB801CED768877987FB
:100DE000248530E0322F22278585A901482BCA01AE
:100DF000B801C2D76A877B87DF91CF911F910F918E
:100E00000895EF92FF920F931F93CF93DF93CDB787
:100E1000DEB76497CDBFDEBF7C01FC0181818F937B
:100E200080818F9386E190E29F938F938E010F5F75
:100E30001F4F1F930F930E946B0F26E030E240E09C
:100E400060E0C8017ADCF70183818F9382818F9300
:100E50008FE190E29F938F931F930F930E946B0FEC
:100E600026E030E24AE060E0C80167DCF7018581F6
:100E70008F9384818F9388E290E29F938F931F9347
:100E80000F930E946B0F26E030E244E160E0C8015E
:100E900054DCF70187818F9386818F9381E390E201
:100EA0009F938F931F930F930E946B0F26E030E266
:100EB00040E06EE3C80141DCF70181858F938085B6
:100EC0008F938AE390E29F938F931F930F930E94D7
:100ED0006B0F26E030E24AE06EE3C8012EDCF7013A
:100EE00083858F9382858F9383E490E29F938F9382
:100EF0001F930F93F0D7CDBFDEBF26E030E244E171
:100F00006EE3C8011ADC6496CDBFDEBFDF91CF91DE
:100F10001F910F91FF90EF900895CF93DF93EB0116
:100F200040D48883DF91CF91089533C4CF93DF936A
:100F3000CDB7DEB72E97CDBFDEBFAFDA5BD0B0DC6A
:100F4000CCDDFDDE84E0E4DE80EC99E080939D2240
:100F500090939E2285E997E080939B2290939C2218
:100F60008DE897E08093992290939A2283E090E015
:100F70008D839E831F821886198680E096E9A0E003
:100F8000B0E089839A83AB83BC8360E184E090E026
:100F9000BCDABE016F5F7F4F80EC99E0DFD46DE17A
:100FA00075E084E395E01DD78CE490E264D780E59A
:100FB00090E261D785E590E25ED7CE01019698DE9A
:100FC000CE010196CDDECE0101961BDFF9CFAB013C
:100FD000982F969596959695877021E030E0B90107
:100FE00001C0660F8A95EAF720E2929FC0011124A2
:100FF0009A5FA9CCCF93DF9363E070E08CE1E7DFE9
:1010000063E070E08DE1E3DF60E07BE188E1DFDF5A
:1010100060E07BE18AE1DBDF60E07BE185E0D7DF58
:1010200063E070E089E7D3DFC0E4D6E08E858061BD
:101030008E8763E070E088E7CADF63E070E08BE1F1
:10104000C6DF63E070E085E1C2DF63E070E087E166
:10105000BEDF60E070E086E0BADF60E070E087E06D
:10106000B6DF60E070E089E1B2DFE0E6F6E08685B9
:101070008061868763E070E08FE1A9DF60E070E067
:101080008EE1A5DF888180688883E0EBF0E08481D1
:1010900081608483DF91CF9108951F920F920FB6E4
:1010A0000F9211242F933F934F935F936F937F93EE
:1010B0008F939F93AF93BF93EF93FF93E7DC4091A0
:1010C000240250912502E0919F22F091A02261E03C
:1010D00080E092E00995FF91EF91BF91AF919F91D0
:1010E0008F917F916F915F914F913F912F910F90D1
:1010F0000FBE0F901F9018951F920F920FB60F9270
:1011000011242F933F934F935F936F937F938F930C
:101110009F93AF93BF93EF93FF93B8DCE1EAF2E2C2
:1011200080819181019680839183FF91EF91BF919E
:10113000AF919F918F917F916F915F914F913F916F
:101140002F910F900FBE0F901F9018951F920F9226
:101150000FB60F921124CF92DF92EF92FF920F936E
:101160001F932F933F934F935F936F937F938F932F
:101170009F93AF93BF93EF93FF9388DC4091A1229D
:101180005091A2220091A3221091A422401751074E
:10119000B8F181E080930204E091A722F091A822A7
:1011A000309771F1809108049091090460E070E03B
:1011B000BA0155274427A0E0B0E06A017B01C82AA4
:1011C000D92AEA2AFB2AC701B60120E030E09801BB
:1011D00011270027C090A522D090A622E12CF12C47
:1011E0000C291D292E293F2906171707280739071B
:1011F00030F0C901B8016F5F7F4F8F4F9F4F099546
:10120000FF91EF91BF91AF919F918F917F916F91DE
:101210005F914F913F912F911F910F91FF90EF9010
:10122000DF90CF900F900FBE0F901F9018951F92D8
:101230000F920FB60F9211242F933F934F935F930A
:101240006F937F938F939F93AF93BF93EF93FF938E
:101250001DDCE0918B22F0918C22309709F00995EA
:10126000FF91EF91BF91AF919F918F917F916F917E
:101270005F914F913F912F910F900FBE0F901F9054
:1012800018951F920F920FB60F9211242F933F9330
:101290004F935F936F937F938F939F93AF93BF937E
:1012A000EF93FF93F3DBE0918922F0918A2230974C
:1012B00009F00995FF91EF91BF91AF919F918F91A7
:1012C0007F916F915F914F913F912F910F900FBE42
:1012D0000F901F9018951F920F920FB60F92112426
:1012E0002F933F934F935F936F937F938F939F932E
:1012F000AF93BF93EF93FF93C9DBE0918722F09107
:101300008822309709F00995FF91EF91BF91AF9135
:101310009F918F917F916F915F914F913F912F910D
:101320000F900FBE0F901F9018951F920F920FB63F
:101330000F9211242F933F934F935F936F937F935B
:101340008F939F93AF93BF93EF93FF939FDBE091B6
:101350008522F0918622309709F00995FF91EF914F
:10136000BF91AF919F918F917F916F915F914F91BD
:101370003F912F910F900FBE0F901F9018951F92C5
:101380000F920FB60F9211242F933F934F935F93B9
:101390006F937F938F939F93AF93BF93EF93FF933D
:1013A00075DBE0918322F0918422309709F0099552
:1013B000FF91EF91BF91AF919F918F917F916F912D
:1013C0005F914F913F912F910F900FBE0F901F9003
:1013D00018951F920F920FB60F9211242F933F93DF
:1013E0004F935F936F937F938F939F93AF93BF932D
:1013F000EF93FF934BDBE0918122F09182223097B3
:1014000009F00995FF91EF91BF91AF919F918F9155
:101410007F916F915F914F913F912F910F900FBEF0
:101420000F901F9018951F920F920FB60F921124D4
:101430002F933F934F935F936F937F938F939F93DC
:10144000AF93BF93EF93FF9321DBE0917F22F09165
:101450008022309709F00995FF91EF91BF91AF91EC
:101460009F918F917F916F915F914F913F912F91BC
:101470000F900FBE0F901F9018951F920F920FB6EE
:101480000F9211242F933F934F935F936F937F930A
:101490008F939F93AF93BF93EF93FF93F7DAE0910E
:1014A0007D22F0917E22309709F00995FF91EF910E
:1014B000BF91AF919F918F917F916F915F914F916C
:1014C0003F912F910F900FBE0F901F9018951F9274
:1014D0000F920FB60F9211242F933F934F935F9368
:1014E0006F937F938F939F93AF93BF93EF93FF93EC
:1014F000CDDAE0917B22F0917C22309709F00995BA
:10150000FF91EF91BF91AF919F918F917F916F91DB
:101510005F914F913F912F910F900FBE0F901F90B1
:1015200018951F920F920FB60F9211242F933F938D
:101530004F935F936F937F938F939F93AF93BF93DB
:10154000EF93FF93A3DAE0917922F0917A2230971A
:1015500009F00995FF91EF91BF91AF919F918F9104
:101560007F916F915F914F913F912F910F900FBE9F
:101570000F901F9018951F920F920FB60F92112483
:101580002F933F934F935F936F937F938F939F938B
:10159000AF93BF93EF93FF9379DAE0917722F091C5
:1015A0007822309709F00995FF91EF91BF91AF91A3
:1015B0009F918F917F916F915F914F913F912F916B
:1015C0000F900FBE0F901F9018951F920F920FB69D
:1015D0000F9211242F933F934F935F936F937F93B9
:1015E0008F939F93AF93BF93EF93FF934FDAE09165
:1015F0007522F0917622309709F00995FF91EF91CD
:10160000BF91AF919F918F917F916F915F914F911A
:101610003F912F910F900FBE0F901F9018951F9222
:101620000F920FB60F9211242F933F934F935F9316
:101630006F937F938F939F93AF93BF93EF93FF939A
:1016400025DAE0917322F0917422309709F0099520
:10165000FF91EF91BF91AF919F918F917F916F918A
:101660005F914F913F912F910F900FBE0F901F9060
:1016700018951F920F920FB60F9211242F933F933C
:101680004F935F936F937F938F939F93AF93BF938A
:10169000EF93FF93FBD9E0917122F0917222309782
:1016A00009F00995FF91EF91BF91AF919F918F91B3
:1016B0007F916F915F914F913F912F910F900FBE4E
:1016C0000F901F901895009709F462C0811524E0CF
:1016D000920711F464E058C0803821E0920711F4B9
:1016E00062E052C0811521E0920711F461E04CC024
:1016F000803823E0920711F461E00BC0811522E0ED
:10170000920711F462E005C0811523E0920721F4ED
:1017100064E081E090E03AC0811528E0920711F47E
:1017200061E02BC0803428E0920711F462E025C00C
:10173000803429E0920711F462E017C0803B28E072
:10174000920711F464E019C0803E28E0920711F47A
:1017500068E013C0803C28E0920711F460E10DC0FE
:10176000803C29E0920721F460E184E090E00EC023
:10177000803824E0920721F460E483E090E006C022
:101780008036944029F460E880E090E00C94850273
:101790000895FC01218125FFFCCF608380E090E06B
:1017A0000895FC01218127FFFCCF808108958F924D
:1017B0009F92AF92BF92CF92DF92EF92FF920F93E0
:1017C0001F93CF93DF93EC016A017B01480159011C
:1017D000B901A801E3E07695679557954795EA9595
:1017E000D1F7D901C801F6E1B695A79597958795E8
:1017F000FA95D1F72B8122FD08C07695679557950C
:101800004795B695A795979587954C155D056E05F7
:101810007F0508F495C0C816D906EA06FB0608F449
:101820008FC08B8182FD04C0CC0CDD1CEE1CFF1C24
:10183000C501B401A7019601B2D219EF8FEF90E074
:10184000A0E0B0E0281739074A075B0758F0880F77
:10185000991FAA1FBB1F1D3F0CF481601F5F17302B
:1018600089F748C017FF46C0D701C601F3E0880FCB
:10187000991FAA1FBB1FFA95D1F7881A990AAA0ABD
:10188000BB0A812F012E000C990B1E3FDCF42DEFBB
:101890003FEFA901481B590B04C0880C991CAA1CD6
:1018A000BB1C4A95D2F7D701C601B695A795979567
:1018B0008795BC01CD01680D791D8A1D9B1DA7016F
:1018C000960116C00396A701960104C0220F331F8C
:1018D000441F551F8A95D2F7DA01C901B695A7951D
:1018E00097958795BC01CD01680D791D8A1D9B1DBB
:1018F00056D21CC083E0810FA701960104C0220FBD
:10190000331F441F551F8A95D2F7DA01C901B695D6
:10191000A79597958795BC01CD01680D791D8A1D06
:101920009B1D3DD22150310941095109932F9F70D0
:10193000812F8295807F892B8F832E8381E001C048
:1019400080E0DF91CF911F910F91FF90EF90DF909A
:10195000CF90BF90AF909F908F9008950F931F935B
:10196000CF93DF93EC018B01AEDE8C818F738C8380
:10197000F80196818481982B8085811188E0892BDC
:101980008C83F801408151816281738100E018E409
:1019900028EE31E0CE010BDF9B8198609B839B8119
:1019A00090619B83DF91CF911F910F9108950F93C9
:1019B0001F93CF93DF93EC01D901C801369527958A
:1019C00017950795401751076207730760F49A014E
:1019D000AB01220F331F441F551FBC01CD01DFD1C6
:1019E0002150310902C020E030E0832F8F708F83B7
:1019F0002E83DF91CF911F910F910895EF92FF9267
:101A00000F931F93CF93DF93EC017B015CDE8B81FF
:101A10008F7E8B83F70124812250C03CF8E0DF07E2
:101A200031F480914E0684FD62C011E10BC0C03CD0
:101A300089E0D80739F480916E0684FD02C019E16F
:101A400001C01DE1E12FE695E695E69580E2E89F6D
:101A5000F0011124FA5F177081E090E0012E01C0BF
:101A6000880F0A94EAF78183223010F030E001C039
:101A700030E4DF015096A10FB11D4FB7F8942C91BF
:101A800027702C939C91932B9C934FBF85838C81C3
:101A9000806C8C83F70184818D7F813019F48C8177
:101AA000826002C08C818D7F8C83F70185818823C1
:101AB00019F08C81846002C08C818B7F8C83F7014C
:101AC000408151816281738100E018E428EE31E0A9
:101AD000CE016DDF8B8188608B838B8180618B83EE
:101AE000DF91CF911F910F91FF90EF90089515E135
:101AF000A9CF1F920F920FB60F9211242F933F93ED
:101B00004F935F936F937F938F939F93AF93BF9305
:101B1000CF93DF93EF93FF930E944605E0918D22D0
:101B2000F0918E22848183FF07C08860848383E0E4
:101B3000838386EF9FEF84C0982F947129F083E010
:101B400083838FEF9FEF7CC086FF41C0A0918F22DF
:101B5000B0919022809191229091922214962D9191
:101B60003C9115978217930764F49C012F5F3F4FB8
:101B70002093912230939222A80FB91F11968C9135
:101B800022C0809193229091942218962D913C919D
:101B9000199782179307C8F420919522222321F0E8
:101BA00086818160868350C016962D913C9117974F
:101BB000AC014F5F5F4F4093932250939422D90121
:101BC000A80FB91F8C9187833FC083E02CC087FF8B
:101BD00035C0A0918F22B091902280919322909154
:101BE000942218962D913C9119978217930708F526
:101BF00016966D917C9117979C012F5F3F4F209314
:101C00009322309394224781EB01C80FD91F488358
:101C100018968D919C9119972817390718F482E02E
:101C2000838312C087E083831092972210929822B8
:101C30000BC083E0838389EF9FEF02C08BEF9FEFA0
:101C40008093972290939822FF91EF91DF91CF910B
:101C5000BF91AF919F918F917F916F915F914F91C4
:101C60003F912F910F900FBE0F901F901895FC0180
:101C7000DB0114968C91858388EB818381E08483DA
:101C8000EDE8F2E2118612861386E0EAF0E0828146
:101C900082608283789480E090E00895DC01FB010B
:101CA000892B09F44AC0309709F447C08285909186
:101CB0009622992319F0811142C0FFCF8FB7F89473
:101CC00091E09093962220E83FEF20939722309363
:101CD00098228FBFA0938D22B0938E2260938F2283
:101CE000709390221092912210929222109293223D
:101CF00010929422409395229081990F24813581EE
:101D0000232B11F44111916016969C938091972298
:101D10009091982280389F4FC9F3E0918D22F091E5
:101D20008E2284818370813009F0F7CF80919722D1
:101D30009091982210929622089588EF01C086EF24
:101D40009FEF08951BBEFC0128ED24BF608308951A
:101D5000AA1BBB1B51E107C0AA1FBB1FA617B707D1
:101D600010F0A61BB70B881F991F5A95A9F78095ED
:101D70009095BC01CD01089597FB072E16F40094B1
:101D800006D077FD08D0E4DF07FC05D03EF490953F
:101D900081959F4F0895709561957F4F0895A1E2B9
:101DA0001A2EAA1BBB1BFD010DC0AA1FBB1FEE1FD5
:101DB000FF1FA217B307E407F50720F0A21BB30B20
:101DC000E40BF50B661F771F881F991F1A9469F79C
:101DD00060957095809590959B01AC01BD01CF01F8
:101DE00008950F931F93CF93DF93009731F46115FC
:101DF000710519F480E090E039C08B01EC016EE0D0
:101E000070E081E090E04AD2FC01892B99F380E8F0
:101E100083830115110571F00287138781E883839D
:101E20008091A9229091AA22892B21F4E093A922E2
:101E3000F093AA222097C9F0C087D187838182605E
:101E400083838091AB229091AC22892B71F4E09333
:101E5000AB22F093AC228091AD229091AE22892BDF
:101E600021F4E093AD22F093AE22CF01DF91CF9128
:101E70001F910F9108950F931F93CF93DF93E091DC
:101E8000AB22F091AC22238121FF1BC08C01D0E05A
:101E9000C0E0F80181918F016091AB227091AC227A
:101EA000DB011896ED91FC911997882331F0099583
:101EB000892B79F3DFEFCFEFECCF8AE00995892BFF
:101EC00019F08FEF9FEF02C08D2F9C2FDF91CF91E4
:101ED0001F910F910895AEE0B0E0E0E7FFE0E6C3A8
:101EE0000D891E8986E08C8309831A838FEF9FE713
:101EF0008D839E83AE01475E5F4F6F89788DCE01E3
:101F0000019609D02F813885F801E20FF31F108266
:101F10002E96E4E0E4C3ACE0B0E0E0E9FFE0B8C353
:101F20007C016B018A01FC0116821782838181FF8B
:101F3000B0C1CE0101964C01F7019381F60193FDEA
:101F4000859193FF81916F01882309F49EC18532A9
:101F500039F493FD859193FF81916F01853221F4CE
:101F6000B70190E0FFD2E8CF512C312C20E0203295
:101F7000A0F48B3269F030F4803259F0833269F486
:101F800020612CC08D3239F0803339F4216026C0B5
:101F90002260246023C0286021C027FD27C030EDC7
:101FA000380F3A3078F426FF06C0FAE05F9E300D15
:101FB0001124532E13C08AE0389E300D1124332E85
:101FC00020620CC08E3221F426FD5FC1206406C061
:101FD0008C3611F4206802C0883641F4F60193FD76
:101FE000859193FF81916F018111C1CF982F9F7DC2
:101FF0009554933028F40C5F1F4FFFE3F9830DC015
:10200000833631F0833771F0833509F057C021C032
:10201000F801808189830E5F1F4F44244394512C23
:10202000540114C03801F2E06F0E711CF801A08059
:10203000B18026FF03C0652D70E002C06FEF7FEF17
:10204000C5012C8784D22C0183012C852F77222E69
:1020500016C03801F2E06F0E711CF801A080B1804B
:1020600026FF03C0652D70E002C06FEF7FEFC50152
:102070002C875BD22C012C852068222E830123FC27
:1020800019C0832D90E048165906A0F4B70180E2EC
:1020900090E068D23A94F5CFF50127FC859127FEB0
:1020A00081915F01B70190E05DD231103A94F1E087
:1020B0004F1A51084114510479F7DEC0843611F0EB
:1020C000893631F5F80127FF07C06081718182816F
:1020D00093810C5F1F4F08C060817181072E000C37
:1020E000880B990B0E5F1F4F2F76722E97FF09C03A
:1020F00090958095709561957F4F8F4F9F4F206889
:10210000722E2AE030E0A40165D2A82EA81843C0A0
:10211000853729F42F7EB22E2AE030E025C0F22F39
:10212000F97FBF2E8F36C1F018F4883579F0ADC035
:10213000803719F0883721F0A8C02F2F2061B22EE8
:10214000B4FE0DC08B2D8460B82E09C024FF0AC0D8
:102150009F2F9660B92E06C028E030E005C020E130
:1021600030E002C020E132E0F801B7FE07C0608134
:102170007181828193810C5F1F4F06C060817181E4
:1021800080E090E00E5F1F4FA40124D2A82EA81873
:10219000FB2DFF777F2E76FE0BC0372D3E7FA514DB
:1021A00050F474FE0AC072FC08C0372D3E7E05C094
:1021B000BA2C372D03C0BA2C01C0B52C34FF0DC08A
:1021C000FE01EA0DF11D8081803311F4397E09C0D2
:1021D00032FF06C0B394B39404C0832F867809F00D
:1021E000B39433FD12C030FF06C05A2CB31418F458
:1021F000530C5B18B32CB31460F4B70180E290E089
:102200003C87B0D1B3943C85F6CFB31410F43B189F
:1022100001C0312C34FF11C0B70180E390E03C874E
:10222000A1D13C8532FF16C031FD03C088E790E0A4
:1022300002C088E590E0B7010CC0832F867851F08A
:1022400031FF02C08BE201C080E237FD8DE2B701B1
:1022500090E088D1A51430F4B70180E390E082D1FA
:102260005A94F8CFAA94F401EA0DF11D8081B701C8
:1022700090E078D1A110F6CF332009F45DCEB701FC
:1022800080E290E06FD13A94F7CFF7018681978191
:1022900002C08FEF9FEF2C96E2E113C20F931F93C2
:1022A000CF93DF93869F8001879F100D969F100D1F
:1022B0001124C8010DD0EC01009721F0A80160E0C5
:1022C00070E03ED1CE01DF91CF911F910F91089523
:1022D000CF93DF938230910510F482E090E0E0919B
:1022E000B122F091B22220E030E0C0E0D0E030979F
:1022F00011F14081518148175907C0F0481759071B
:1023000061F482819381209719F08A839B832BC08B
:102310008093B1229093B22226C02115310519F085
:102320004217530718F49A01BE01DF01EF01028042
:10233000F381E02DDCCF2115310509F1281B390B84
:102340002430310590F412968D919C91139761156C
:10235000710521F0FB018283938304C08093B12235
:102360009093B222FD01329644C0FD01E20FF31FAB
:1023700081939193225031092D933C933AC020913F
:10238000AF223091B022232B41F4209102203091D2
:1023900003202093AF223093B0222091002030916F
:1023A00001202115310541F42DB73EB7409104209D
:1023B00050910520241B350BE091AF22F091B02203
:1023C000E217F307A0F42E1B3F0B2817390778F00C
:1023D000AC014E5F5F4F2417350748F04E0F5F1F6B
:1023E0004093AF225093B0228193919302C0E0E0DA
:1023F000F0E0CF01DF91CF9108950F931F93CF931A
:10240000DF93009709F48CC0FC013297128213828B
:102410000091B1221091B2220115110581F42081A1
:102420003181820F931F2091AF223091B022281763
:10243000390779F5E093AF22F093B02271C0D8014B
:1024400040E050E0AE17BF0750F412962D913C913A
:102450001397AD012115310509F1D901F3CF9D0184
:10246000DA012283338360817181860F971F82177F
:10247000930769F4EC0128813981260F371F2E5FFD
:102480003F4F208331838A819B8182839383452BB5
:1024900029F4E093B122F093B22242C01296ED9358
:1024A000FC931397ED01499159919E01240F351F1B
:1024B000E217F30771F480819181840F951F0296D2
:1024C0008D939C9311978281938112968D939C9307
:1024D0001397E0E0F0E0D80112968D919C9113974C
:1024E000009719F0F8018C01F6CF8D919C9198011D
:1024F0002E5F3F4F820F931F2091AF223091B02269
:102500002817390769F4309729F41092B1221092F4
:10251000B22202C0128213820093AF221093B02223
:10252000DF91CF911F910F910895FC0105906150AB
:1025300070400110D8F7809590958E0F9F1F0895D9
:10254000DC0101C06D9341505040E0F70895FC015B
:102550006150704001900110D8F7809590958E0FD2
:102560009F1F08950F931F93CF93DF93FB01238148
:1025700021FD03C08FEF9FEF28C022FF16C04681C8
:102580005781248135814217530744F4A081B181DA
:102590009D012F5F3F4F208331838C9326813781AC
:1025A0002F5F3F4F2683378310C0EB01092F182F71
:1025B0000084F185E02D0995892BE1F68E819F81BC
:1025C00001968E839F83812F902FDF91CF911F9152
:1025D0000F910895FA01AA27283051F1203181F195
:1025E000E8946F936E7F6E5F7F4F8F4F9F4FAF4F1B
:1025F000B1E03ED0B4E03CD0670F781F891F9A1F2E
:10260000A11D680F791F8A1F911DA11D6A0F711DE1
:10261000811D911DA11D20D009F468943F912AE0ED
:10262000269F11243019305D3193DEF6CF010895D5
:10263000462F4770405D4193B3E00FD0C9F7F6CF06
:10264000462F4F70405D4A3318F0495D31FD4052CE
:10265000419302D0A9F7EACFB4E0A6959795879564
:1026600077956795BA95C9F7009761057105089543
:102670009B01AC010A2E06945795479537952795EF
:10268000BA95C9F7620F731F841F951FA01D089587
:102690002F923F924F925F926F927F928F929F9272
:1026A000AF92BF92CF92DF92EF92FF920F931F9360
:1026B000CF93DF93CDB7DEB7CA1BDB0BCDBFDEBF39
:1026C00009942A88398848885F846E847D848C8444
:1026D0009B84AA84B984C884DF80EE80FD800C814D
:1026E0001B81AA81B981CE0FD11DCDBFDEBFED0107
:0626F0000895F894FFCFED
:1026F6000000B32220000000AC000607207D783AD7
:1027060020307825580041583A202530336400415E
:10271600593A202530336400415A3A202530336433
:102726000047583A20253033640047593A2025306F
:10273600336400475A3A2025303364001B5B480057
:0C2746001B5B324A001B5B3F32356C000D
:00000001FF
